:1070000055C000006EC000006CC000006AC00000E7
:1070100068C0000066C0000064C0000062C00000DC
:1070200060C000005EC0000043C500005AC0000000
:1070300058C0000056C0000054C0000052C00000FC
:1070400050C000004EC000004CC000004AC000000C
:1070500049C0000046C0000044C0000042C000001B
:1070600040C000003EC000003CC000003AC000002C
:1070700038C0000036C0000034C0000032C000003C
:1070800030C000002EC000002CC000002AC000004C
:1070900028C0000026C0000024C0000022C000005C
:1070A00020C000001EC000001CC0000011241FBE34
:1070B000CFEFDAE0DEBFCDBF11E0A0E0B1E0E8E75E
:1070C000FEE702C005900D92A437B107D9F711E091
:1070D000A4E7B1E001C01D92A139B107E1F792D355
:1070E000C9C68ECF1F920F920FB60F9211248F93A5
:1070F0009F938BB190E489278BB99F918F910F90CB
:107100000FBE0F901F901895482F1CC02091F300C0
:107110008091F200322F20E090E0822B932B892B7C
:1071200071F48091E8008B7F8093E80003C08EB3F8
:10713000882351F08091E80082FFF9CF02C080914E
:10714000F1004150442311F70895209183013091BB
:1071500082018091810190918001809375019093CB
:107160007601C901809377019093780108951F9368
:1071700080917B018823D9F080917E01843049F48D
:1071800080917F01882339F4809180018F3F19F429
:107190000EC0853061F08AE08093000183E0809327
:1071A0007A018091EB0080628093EB00CFC08091E8
:1071B0007E01843009F458C0853030F4813059F0B4
:1071C000833009F0C3C01DC0853009F4A0C08630EB
:1071D00009F0BCC0AFC010917F01123008F0B6C0FA
:1071E000B4DF112361F4809175019091760123E061
:1071F000FC0120935700E89507B600FCFDCF85E021
:1072000008C080917F01882311F0823029F49DDF2E
:1072100089E0809300019AC0813009F097C020E096
:1072200030E040E050E0F90184918F3F81F0CA01E5
:10723000AA27BB27809379013093760120937501AB
:107240008AE08093000185E080937A017FC02F5F00
:107250003F4F4F4F5F4F2030F0E73F07F0E04F07C1
:10726000F0E05F0701F772C080917F01833051F534
:1072700081E0809374018091840190918501892B34
:1072800071F080918001813009F060C080918301AC
:107290009091820190937D0180937C0157C08091F1
:1072A0008001882361F42CE088E190E00FB6F89427
:1072B000A895809360000FBE2093600047C0109295
:1072C000010144C0882309F041C0809180018F3FB3
:1072D00009F03CC0E0E0F0E093E085E090935700D7
:1072E000E89507B600FCFDCF80935700E89507B6F8
:1072F00000FCFDCFE058FF4F20E7E030F20771F7C8
:1073000081E180935700E89510927B011FC0E091C6
:10731000800180917F01882321F4F0E0EB5FFE4F34
:1073200005C0813099F4F0E0EE52FF4F80818093E8
:1073300086010CC080917F01833041F480918001EF
:10734000882321F480918101809379011F91089510
:107350002F923F924F925F926F927F928F929F9265
:10736000AF92BF92CF92DF92EF92FF920F931F9353
:10737000DF93CF9300D000D000D0CDB7DEB780919F
:1073800089018F77813209F024C28BB190E489277B
:107390008BB900918F01109190011093850100939A
:1073A000840180918A01833009F4DDC1843030F496
:1073B000813071F0823009F00CC230C1853009F49F
:1073C000F0C1853008F4E5C1863009F002C2F8C189
:1073D0008091E800877F8093E80080917401882382
:1073E00019F0C5DE109274010115110529F432C09F
:1073F0008EB3882309F4EDC18091E80082FFF8CFB5
:107400008091F10080937E01A8014150504050933B
:10741000850140938401EFE7F1E00CC08091F10019
:1074200081934150504081E0E438F80719F45183CA
:1074300040830FC02091F3008091F200322F20E0B2
:1074400090E0822B932B892B49F750938501409331
:1074500084018DDE80910001853009F0DBC08091D0
:10746000840190918501892B21F482E080930001B1
:10747000D1C08AE149DEE0907501F09076018E2D51
:107480008F7142DE60907701709078010894611CE2
:10749000711C83010E191F090894610871088091FD
:1074A0007F01882309F0B1C0480196948794C701F1
:1074B000A0917901B0E0AC01BD01E2E0EE2EF12C2B
:1074C000012D112DE40EF51E061F171F49835A8347
:1074D0006B837C8333244424439475E0572E63E00C
:1074E000262E5BC02091F3008091F200322F20E025
:1074F00090E0822B932B892B71F48091E8008B7F95
:107500008093E80004C08EB3882309F462C180919F
:10751000E80082FFF8CF0894810891088091F1007B
:107520008D838091F1008E83E981FA81AD80BE80E8
:10753000050140925700E8951124339430E4B32EAE
:107540003B1419F081149104A1F4FA0150925700F0
:10755000E89507B600FCFDCF8114910451F0F701C6
:1075600020925700E89507B600FCFDCFB801A701AF
:10757000332422E0A22EB12CC12CD12CEA0CFB1C0E
:107580000C1D1D1D89819A81AB81BC810296A11DB4
:10759000B11D89839A83AB83BC838114910409F064
:1075A000A1CF709276016092750181E180935700BE
:1075B000E8952EC02091F3008091F200F22EEE2487
:1075C00090E08E299F29892B71F48091E8008B7FB0
:1075D0008093E80004C08EB3882309F4FAC0809138
:1075E000E80082FFF8CF6091F100809175019091E1
:1075F000760132D480917501909176010196909335
:10760000760180937501015010400115110591F626
:1076100080E17ADD8091E8008B7FCFC08091E80027
:10762000877F8093E80004C08EB3882309F4D1C01B
:107630008091E80080FFF8CF80910001893091F0BF
:107640008A3069F480917F01813049F4809175011D
:10765000909176018093F1009093F100ABC08091FE
:107660008601A6C0C0907701D09078012091750165
:10767000309176010894C11CD11C7601E21AF30AFC
:107680000894C108D10880917F018823C1F5870142
:1076900016950795C901A0917901B0E0AC01BD0133
:1076A00026C02091F3008091F200322F20E090E07C
:1076B000822B932B809771F48091E8008E7F8093CA
:1076C000E80004C08EB3882309F483C08091E800E9
:1076D00080FFF8CFFA01859194918093F100909307
:1076E000F100015010404E5F5F4F6F4F7F4F01150B
:1076F0001105B9F6D0927601C092750130C0823082
:1077000071F52AC02091F3008091F200D22ECC2492
:1077100090E08C299D29809771F48091E8008E7FFC
:107720008093E80004C08EB3882309F452C080918E
:10773000E80080FFF8CF0091750110917601C80133
:1077400083D38093F1000F5F1F4F10937601009356
:1077500075010894E108F108E114F10499F682E05A
:107760008093000127C08091E800877F8093E80024
:1077700080917A018093F1001092F1001092F10053
:107780001092F100809100018093F1001092F100BD
:1077900011C08091E800877F8093E80010927A0101
:1077A00017C08091E800877F8093E80080910001F6
:1077B0008093F1008091E8008E7F8093E80008C0FC
:1077C0008091E800877F8093E80082E08093000149
:1077D000E1D026960FB6F894DEBF0FBECDBFCF9195
:1077E000DF911F910F91FF90EF90DF90CF90BF90AE
:1077F000AF909F908F907F906F905F904F903F9051
:107800002F9008951F9384B7877F84BF88E10FB6B8
:10781000F89480936000109260000FBE80E090E0CA
:1078200020E80FB6F89420936100809361000FBEAA
:1078300011E015BF82E085BF23D1569A5E9A10935E
:107840006F0083E0809381005E98789401C0F3D24A
:10785000809101018823D9F7809174018823B9F7B9
:10786000B8D056985E9881E085BF15BEE0917C0146
:10787000F0917D0109959B01AC0107B600FCFDCF9D
:10788000F999FECF83E0F90180935700E89581E1F3
:1078900080935700E89508959B01AC0107B600FC62
:1078A000FDCFF999FECF85E0F90180935700E89567
:1078B00081E180935700E89508950F931F938B0102
:1078C0009C0107B600FCFDCFF999FECF81E0F801DD
:1078D0000A0180935700E89511241F910F91089594
:1078E00021E2FC01209357002491822F089529E082
:1078F000FC01209357002491822F0895E1E0F0E0ED
:1079000089E08093570084910895982F07B600FC72
:10791000FDCFF999FECF909589E0E1E0F0E0092EE6
:1079200080935700E8950895FA01923071F09330F2
:1079300089F0913029F488E091E022E130E015C02F
:1079400080E090E020E030E010C08AE191E02BE19F
:1079500030E00BC0882329F485E391E024E030E097
:1079600004C089E391E028E330E091838083C9017A
:1079700008958091EB0081608093EB001092ED0000
:107980006093EC004093ED008091EE00881F882703
:10799000881F08958091890188238CF403C08EB3D9
:1079A0008823B1F08091E80082FFF9CF8091E80050
:1079B0008B7F8093E80008958EB3882349F08091EF
:1079C000E80080FFF9CF8091E8008E7F8093E80087
:1079D000089561D068D0E0EEF0E08081816080831E
:1079E000A8EDB0E08C918F778C9319BCE7EDF0E0B7
:1079F00080818E7F80838C918F7E8C931092880102
:107A00000895EF92FF920F931F9345D04CD008ED4D
:107A100010E0F80180818F77808380818068808387
:107A200080818F7D808319BC1EBA1092870180EE01
:107A3000E82EF12CF70180818B7F8083F801808113
:107A40008160808380E060E042E293DFE1EEF0E07D
:107A500080818E7F8083E2EEF0E080818160808390
:107A6000808188608083F70180818E7F8083F80128
:107A70008081806180831F910F91FF90EF90089526
:107A8000E7EDF0E080818160808384E082BF81E067
:107A900080938801B6CFE8EDF0E080818E7F80830F
:107AA0001092E20008951092DA001092E100089519
:107AB0001F920F920FB60F9211242F933F934F9363
:107AC0005F936F937F938F939F93AF93BF93EF9346
:107AD000FF938091DA0080FF1BC08091D80080FF67
:107AE00017C08091DA008E7F8093DA008091D900F0
:107AF00080FF0BC080E189BD82E189BD09B400FE31
:107B0000FDCF81E08EBB96D103C019BC1EBA92D1C5
:107B10008091E10080FF17C08091E20080FF13C0D8
:107B20008091E2008E7F8093E2008091E20080618C
:107B30008093E2008091D80080628093D80019BCC5
:107B400085E08EBB77D18091E10084FF2CC08091CD
:107B5000E20084FF28C080E189BD82E189BD09B4CB
:107B600000FEFDCF8091D8008F7D8093D80080915A
:107B7000E1008F7E8093E1008091E2008F7E809310
:107B8000E2008091E20081608093E20080918701B1
:107B9000882331F48091E30087FD02C081E001C0B9
:107BA00084E08EBB47D18091E10083FF21C08091AA
:107BB000E20083FF1DC08091E100877F8093E10098
:107BC00082E08EBB109287018091E1008E7F8093CE
:107BD000E1008091E2008E7F8093E2008091E200DC
:107BE00080618093E20080E060E042E2C2DE22D168
:107BF000FF91EF91BF91AF919F918F917F916F9185
:107C00005F914F913F912F910F900FBE0F901F905A
:107C100018959C0140918F0150919001461757078C
:107C200018F4F90190E044C06115710511F0AB0141
:107C3000F8CF8091E8008E7F8093E80040E050E02C
:107C4000F0CF8EB3882309F444C0853009F443C0D3
:107C50008091E80083FF02C081E008958091E800F0
:107C600082FD31C08091E80080FF22C08091F30046
:107C70009091F200782F60E0292F30E0262B372BEF
:107C800007C081918093F100415050402F5F3F4FDA
:107C90004115510519F02032310598F390E020325A
:107CA000310509F491E08091E8008E7F8093E8002F
:107CB0004115510531F6992321F605C08EB388236D
:107CC00041F0853041F08091E80082FFF7CF80E0FD
:107CD000089582E0089583E008950F931F93DF9342
:107CE000CF9300D0CDB7DEB7E9E8F1E08091F100A5
:107CF000819381E0E139F807C9F72ADB8091E80038
:107D000083FF83C09091890180918A01863081F13F
:107D1000873020F4853009F078C007C0883009F436
:107D200047C0893009F071C055C0992309F06DC072
:107D300010918B011F770FB7F8948091E800877F2F
:107D40008093E80027DE8091E80080FFFCCF8091DF
:107D5000E3008078812B8093E30080688093E300C8
:107D6000112311F482E001C083E08EBB0FBF4DC030
:107D70009058923008F049C080918B0190918C010D
:107D800060918D01AE014F5F5F4FCEDDBC0100976A
:107D900009F43BC08091E800877F8093E8008981E7
:107DA0009A8137DF8091E8008B7F8093E8002DC0B7
:107DB000903859F58091E800877F8093E8008091A2
:107DC00087018093F1008091E8008E7F8093E80026
:107DD000E1DD1BC09923C9F490918B019230A8F486
:107DE0008091E800877F8093E80090938701D2DD3F
:107DF00080918701882331F48091E30087FD02C0E0
:107E000081E001C084E08EBB15D08091E80083FF43
:107E10000AC08091EB0080628093EB008091E800C3
:107E2000877F8093E8000F900F90CF91DF911F9193
:107E30000F91089508958EB3882329F08091E8006A
:107E400083FF01C04ACF0895F999FECF92BD81BD4D
:107E5000F89A992780B50895262FF999FECF1FBA71
:107E600092BD81BD20BD0FB6F894FA9AF99A0FBE63
:087E700001960895F894FFCF7C
:107E780002011E958720DCFB120110010000002082
:107E8800EB03F42F00000001000109021B000101AF
:107E98000080320904000000FE01020009210300ED
:107EA80000000C00010403090438034D0069006454
:107EB80000690020004600690067006800740065DA
:107EC8000072002000440046005500200042006F68
:107ED800006F0074006C006F006100640065007240
:047EE8000000000096
:107FE0004ACC5ACC6ACC7CCC82CC88CC8ECC0000DB
:107FF0000000000000000000000000000000FBDCAA
:040000030000700089
:00000001FF
